:020000000828CE
:0200080033289B
:100010008316031786018901803081000130880032
:100020000317831289018316031396019D0187012B
:100030009F0197018312031387018601950183169F
:1000400003138C14FF3092008312031326309200A6
:1000500041309F008C10C0308B002E281F149F143D
:100060001E0887002E28A0000308A1008C101E1A6D
:1000700041209E1A44201E1B47209E1B4A20220816
:100080004D280130A20708000230A2070800043002
:10009000A20708000830A207080082075E2862282D
:1000A00066286A286E28722876287A287E28822870
:1000B00086288A288E28922896289A283230A300EB
:1000C00006149E283F30A30006149E284C30A3003F
:1000D00006149E285930A30006149E286630A300FB
:1000E00006149E287330A30006149E288030A300B7
:1000F00006149E288D30A30006149E289A30A30073
:1001000006149E28A730A30006149E28B430A3002E
:1001100006149E28C130A30006149E28CE30A300EA
:1001200006149E28DB30A30006149E28E830A300A6
:1001300006149E28FA30A30006149E280000000032
:1001400000000000000000000000A30B9E28A8286B
:0E01500006100030A2002108830020080900DC
:04400E00F120FF3F5F
:00000001FF
